{
  "_format": "hh-sol-artifact-1",
  "contractName": "AgreementContract",
  "sourceName": "contracts/AgreementContract.sol",
  "abi": [
    {
      "anonymous": false,
      "inputs": [
        {
          "indexed": true,
          "internalType": "uint256",
          "name": "agreementId",
          "type": "uint256"
        }
      ],
      "name": "AgreementCompleted",
      "type": "event"
    },
    {
      "anonymous": false,
      "inputs": [
        {
          "indexed": true,
          "internalType": "uint256",
          "name": "agreementId",
          "type": "uint256"
        }
      ],
      "name": "AgreementConfirmed",
      "type": "event"
    },
    {
      "anonymous": false,
      "inputs": [
        {
          "indexed": true,
          "internalType": "uint256",
          "name": "agreementId",
          "type": "uint256"
        },
        {
          "indexed": true,
          "internalType": "address",
          "name": "provider",
          "type": "address"
        },
        {
          "indexed": true,
          "internalType": "address",
          "name": "receiver",
          "type": "address"
        },
        {
          "indexed": false,
          "internalType": "string",
          "name": "description",
          "type": "string"
        },
        {
          "indexed": false,
          "internalType": "uint256",
          "name": "serviceHours",
          "type": "uint256"
        }
      ],
      "name": "AgreementCreated",
      "type": "event"
    },
    {
      "anonymous": false,
      "inputs": [
        {
          "indexed": true,
          "internalType": "uint256",
          "name": "agreementId",
          "type": "uint256"
        },
        {
          "indexed": false,
          "internalType": "uint256",
          "name": "providerRating",
          "type": "uint256"
        },
        {
          "indexed": false,
          "internalType": "uint256",
          "name": "receiverRating",
          "type": "uint256"
        }
      ],
      "name": "AgreementFinalized",
      "type": "event"
    },
    {
      "inputs": [],
      "name": "agreementCounter",
      "outputs": [
        {
          "internalType": "uint256",
          "name": "",
          "type": "uint256"
        }
      ],
      "stateMutability": "view",
      "type": "function"
    },
    {
      "inputs": [
        {
          "internalType": "uint256",
          "name": "",
          "type": "uint256"
        }
      ],
      "name": "agreements",
      "outputs": [
        {
          "internalType": "address",
          "name": "serviceProvider",
          "type": "address"
        },
        {
          "internalType": "address",
          "name": "serviceReceiver",
          "type": "address"
        },
        {
          "internalType": "string",
          "name": "serviceDescription",
          "type": "string"
        },
        {
          "internalType": "uint256",
          "name": "serviceHours",
          "type": "uint256"
        },
        {
          "internalType": "uint256",
          "name": "createdAt",
          "type": "uint256"
        },
        {
          "internalType": "bool",
          "name": "isConfirmed",
          "type": "bool"
        },
        {
          "internalType": "bool",
          "name": "isCompleted",
          "type": "bool"
        },
        {
          "internalType": "bool",
          "name": "isFinalized",
          "type": "bool"
        }
      ],
      "stateMutability": "view",
      "type": "function"
    },
    {
      "inputs": [
        {
          "internalType": "uint256",
          "name": "_agreementId",
          "type": "uint256"
        }
      ],
      "name": "confirmAgreement",
      "outputs": [],
      "stateMutability": "nonpayable",
      "type": "function"
    },
    {
      "inputs": [
        {
          "internalType": "address",
          "name": "_serviceReceiver",
          "type": "address"
        },
        {
          "internalType": "string",
          "name": "_serviceDescription",
          "type": "string"
        },
        {
          "internalType": "uint256",
          "name": "_serviceHours",
          "type": "uint256"
        }
      ],
      "name": "createAgreement",
      "outputs": [
        {
          "internalType": "uint256",
          "name": "",
          "type": "uint256"
        }
      ],
      "stateMutability": "nonpayable",
      "type": "function"
    },
    {
      "inputs": [
        {
          "internalType": "uint256",
          "name": "_agreementId",
          "type": "uint256"
        },
        {
          "internalType": "uint256",
          "name": "_providerRating",
          "type": "uint256"
        },
        {
          "internalType": "uint256",
          "name": "_receiverRating",
          "type": "uint256"
        }
      ],
      "name": "finalizeAgreement",
      "outputs": [],
      "stateMutability": "nonpayable",
      "type": "function"
    },
    {
      "inputs": [
        {
          "internalType": "uint256",
          "name": "_agreementId",
          "type": "uint256"
        }
      ],
      "name": "getAgreement",
      "outputs": [
        {
          "internalType": "address",
          "name": "serviceProvider",
          "type": "address"
        },
        {
          "internalType": "address",
          "name": "serviceReceiver",
          "type": "address"
        },
        {
          "internalType": "string",
          "name": "serviceDescription",
          "type": "string"
        },
        {
          "internalType": "uint256",
          "name": "serviceHours",
          "type": "uint256"
        },
        {
          "internalType": "uint256",
          "name": "createdAt",
          "type": "uint256"
        },
        {
          "internalType": "bool",
          "name": "isConfirmed",
          "type": "bool"
        },
        {
          "internalType": "bool",
          "name": "isCompleted",
          "type": "bool"
        },
        {
          "internalType": "bool",
          "name": "isFinalized",
          "type": "bool"
        }
      ],
      "stateMutability": "view",
      "type": "function"
    },
    {
      "inputs": [],
      "name": "getAgreementCount",
      "outputs": [
        {
          "internalType": "uint256",
          "name": "",
          "type": "uint256"
        }
      ],
      "stateMutability": "view",
      "type": "function"
    },
    {
      "inputs": [
        {
          "internalType": "address",
          "name": "_user",
          "type": "address"
        }
      ],
      "name": "getUserAgreements",
      "outputs": [
        {
          "internalType": "uint256[]",
          "name": "",
          "type": "uint256[]"
        }
      ],
      "stateMutability": "view",
      "type": "function"
    },
    {
      "inputs": [
        {
          "internalType": "address",
          "name": "_user",
          "type": "address"
        }
      ],
      "name": "getUserReputation",
      "outputs": [
        {
          "internalType": "uint256",
          "name": "totalAgreements",
          "type": "uint256"
        },
        {
          "internalType": "uint256",
          "name": "completedAgreements",
          "type": "uint256"
        },
        {
          "internalType": "uint256",
          "name": "positiveRatings",
          "type": "uint256"
        },
        {
          "internalType": "uint256",
          "name": "totalRatings",
          "type": "uint256"
        }
      ],
      "stateMutability": "view",
      "type": "function"
    },
    {
      "inputs": [
        {
          "internalType": "uint256",
          "name": "_agreementId",
          "type": "uint256"
        }
      ],
      "name": "markAgreementCompleted",
      "outputs": [],
      "stateMutability": "nonpayable",
      "type": "function"
    },
    {
      "inputs": [],
      "name": "serviceCreditRate",
      "outputs": [
        {
          "internalType": "uint256",
          "name": "",
          "type": "uint256"
        }
      ],
      "stateMutability": "view",
      "type": "function"
    },
    {
      "inputs": [
        {
          "internalType": "address",
          "name": "",
          "type": "address"
        },
        {
          "internalType": "uint256",
          "name": "",
          "type": "uint256"
        }
      ],
      "name": "userAgreements",
      "outputs": [
        {
          "internalType": "uint256",
          "name": "",
          "type": "uint256"
        }
      ],
      "stateMutability": "view",
      "type": "function"
    },
    {
      "inputs": [
        {
          "internalType": "address",
          "name": "",
          "type": "address"
        }
      ],
      "name": "userReputations",
      "outputs": [
        {
          "internalType": "uint256",
          "name": "totalAgreements",
          "type": "uint256"
        },
        {
          "internalType": "uint256",
          "name": "completedAgreements",
          "type": "uint256"
        },
        {
          "internalType": "uint256",
          "name": "positiveRatings",
          "type": "uint256"
        },
        {
          "internalType": "uint256",
          "name": "totalRatings",
          "type": "uint256"
        }
      ],
      "stateMutability": "view",
      "type": "function"
    }
  ],
  "bytecode": "0x6080604052600160045534801561001557600080fd5b506121d4806100256000396000f3fe608060405234801561001057600080fd5b50600436106100ce5760003560e01c80637c05798c1161008c578063bd14de9611610066578063bd14de9614610241578063e082169614610278578063f8b1169114610296578063ff45aa3b146102c9576100ce565b80637c05798c146101c2578063adb9cae6146101de578063baccbfdb1461020e576100ce565b80628bed3e146100d35780630673326f146100f157806314f79af71461010d578063251649241461012b5780634c27984e1461015b5780634f9f6fe61461018b575b600080fd5b6100db6102e5565b6040516100e89190611228565b60405180910390f35b61010b60048036038101906101069190611283565b6102ef565b005b6101156106eb565b6040516101229190611228565b60405180910390f35b6101456004803603810190610140919061147a565b6106f1565b6040516101529190611228565b60405180910390f35b610175600480360381019061017091906114e9565b610ae2565b6040516101829190611228565b60405180910390f35b6101a560048036038101906101a09190611529565b610b13565b6040516101b99897969594939291906115ff565b60405180910390f35b6101dc60048036038101906101d79190611529565b610c6b565b005b6101f860048036038101906101f39190611684565b610e05565b604051610205919061176f565b60405180910390f35b61022860048036038101906102239190611684565b610e9c565b6040516102389493929190611791565b60405180910390f35b61025b60048036038101906102569190611529565b610f09565b60405161026f9897969594939291906115ff565b60405180910390f35b610280611040565b60405161028d9190611228565b60405180910390f35b6102b060048036038101906102ab9190611684565b611046565b6040516102c09493929190611791565b60405180910390f35b6102e360048036038101906102de9190611529565b611076565b005b6000600354905090565b600080600085815260200190815260200160002090503373ffffffffffffffffffffffffffffffffffffffff168160010160009054906101000a900473ffffffffffffffffffffffffffffffffffffffff1673ffffffffffffffffffffffffffffffffffffffff1614610397576040517f08c379a000000000000000000000000000000000000000000000000000000000815260040161038e90611848565b60405180910390fd5b8060050160019054906101000a900460ff166103e8576040517f08c379a00000000000000000000000000000000000000000000000000000000081526004016103df906118da565b60405180910390fd5b8060050160029054906101000a900460ff161561043a576040517f08c379a000000000000000000000000000000000000000000000000000000000815260040161043190611946565b60405180910390fd5b6001831015801561044c575060058311155b61048b576040517f08c379a0000000000000000000000000000000000000000000000000000000008152600401610482906119b2565b60405180910390fd5b6001821015801561049d575060058211155b6104dc576040517f08c379a00000000000000000000000000000000000000000000000000000000081526004016104d3906119b2565b60405180910390fd5b60018160050160026101000a81548160ff0219169083151502179055506000600160008360000160009054906101000a900473ffffffffffffffffffffffffffffffffffffffff1673ffffffffffffffffffffffffffffffffffffffff1673ffffffffffffffffffffffffffffffffffffffff16815260200190815260200160002090506000600160008460010160009054906101000a900473ffffffffffffffffffffffffffffffffffffffff1673ffffffffffffffffffffffffffffffffffffffff1673ffffffffffffffffffffffffffffffffffffffff16815260200190815260200160002090508160000160008154809291906105dc90611a01565b91905055508160010160008154809291906105f690611a01565b919050555081600301600081548092919061061090611a01565b9190505550600485106106385781600201600081548092919061063290611a01565b91905055505b80600001600081548092919061064d90611a01565b919050555080600101600081548092919061066790611a01565b919050555080600301600081548092919061068190611a01565b9190505550600484106106a9578060020160008154809291906106a390611a01565b91905055505b857f0f87c7a796b00cedfdd98b908dde8f7b6273281e52e67db5d302b20d59d6417986866040516106db929190611a49565b60405180910390a2505050505050565b60035481565b60008073ffffffffffffffffffffffffffffffffffffffff168473ffffffffffffffffffffffffffffffffffffffff1603610761576040517f08c379a000000000000000000000000000000000000000000000000000000000815260040161075890611abe565b60405180910390fd5b600082116107a4576040517f08c379a000000000000000000000000000000000000000000000000000000000815260040161079b90611b50565b60405180910390fd5b60008351116107e8576040517f08c379a00000000000000000000000000000000000000000000000000000000081526004016107df90611be2565b60405180910390fd5b600360008154809291906107fb90611a01565b9190505550600060035490506040518061010001604052803373ffffffffffffffffffffffffffffffffffffffff1681526020018673ffffffffffffffffffffffffffffffffffffffff1681526020018581526020018481526020014281526020016000151581526020016000151581526020016000151581525060008083815260200190815260200160002060008201518160000160006101000a81548173ffffffffffffffffffffffffffffffffffffffff021916908373ffffffffffffffffffffffffffffffffffffffff16021790555060208201518160010160006101000a81548173ffffffffffffffffffffffffffffffffffffffff021916908373ffffffffffffffffffffffffffffffffffffffff160217905550604082015181600201908161092b9190611e0e565b50606082015181600301556080820151816004015560a08201518160050160006101000a81548160ff02191690831515021790555060c08201518160050160016101000a81548160ff02191690831515021790555060e08201518160050160026101000a81548160ff021916908315150217905550905050600260003373ffffffffffffffffffffffffffffffffffffffff1673ffffffffffffffffffffffffffffffffffffffff168152602001908152602001600020819080600181540180825580915050600190039060005260206000200160009091909190915055600260008673ffffffffffffffffffffffffffffffffffffffff1673ffffffffffffffffffffffffffffffffffffffff1681526020019081526020016000208190806001815401808255809150506001900390600052602060002001600090919091909150558473ffffffffffffffffffffffffffffffffffffffff163373ffffffffffffffffffffffffffffffffffffffff16827f429dbfb8c69f734502d197b3b90333f53e45f497930e0c7d9cfdc7349246785d8787604051610acf929190611ee0565b60405180910390a4809150509392505050565b60026020528160005260406000208181548110610afe57600080fd5b90600052602060002001600091509150505481565b60008060606000806000806000806000808b815260200190815260200160002090508060000160009054906101000a900473ffffffffffffffffffffffffffffffffffffffff168160010160009054906101000a900473ffffffffffffffffffffffffffffffffffffffff1682600201836003015484600401548560050160009054906101000a900460ff168660050160019054906101000a900460ff168760050160029054906101000a900460ff16858054610bcf90611c31565b80601f0160208091040260200160405190810160405280929190818152602001828054610bfb90611c31565b8015610c485780601f10610c1d57610100808354040283529160200191610c48565b820191906000526020600020905b815481529060010190602001808311610c2b57829003601f168201915b505050505095509850985098509850985098509850985050919395975091939597565b600080600083815260200190815260200160002090503373ffffffffffffffffffffffffffffffffffffffff168160010160009054906101000a900473ffffffffffffffffffffffffffffffffffffffff1673ffffffffffffffffffffffffffffffffffffffff1614610d13576040517f08c379a0000000000000000000000000000000000000000000000000000000008152600401610d0a90611f82565b60405180910390fd5b8060050160009054906101000a900460ff1615610d65576040517f08c379a0000000000000000000000000000000000000000000000000000000008152600401610d5c90611fee565b60405180910390fd5b8060050160029054906101000a900460ff1615610db7576040517f08c379a0000000000000000000000000000000000000000000000000000000008152600401610dae90611946565b60405180910390fd5b60018160050160006101000a81548160ff021916908315150217905550817f586f0ab5ab4951d2353ccca33fe31a4c0369ef4b0fb8062c9319712a404d664360405160405180910390a25050565b6060600260008373ffffffffffffffffffffffffffffffffffffffff1673ffffffffffffffffffffffffffffffffffffffff168152602001908152602001600020805480602002602001604051908101604052809291908181526020018280548015610e9057602002820191906000526020600020905b815481526020019060010190808311610e7c575b50505050509050919050565b6000806000806000600160008773ffffffffffffffffffffffffffffffffffffffff1673ffffffffffffffffffffffffffffffffffffffff168152602001908152602001600020905080600001548160010154826002015483600301549450945094509450509193509193565b60006020528060005260406000206000915090508060000160009054906101000a900473ffffffffffffffffffffffffffffffffffffffff16908060010160009054906101000a900473ffffffffffffffffffffffffffffffffffffffff1690806002018054610f7890611c31565b80601f0160208091040260200160405190810160405280929190818152602001828054610fa490611c31565b8015610ff15780601f10610fc657610100808354040283529160200191610ff1565b820191906000526020600020905b815481529060010190602001808311610fd457829003601f168201915b5050505050908060030154908060040154908060050160009054906101000a900460ff16908060050160019054906101000a900460ff16908060050160029054906101000a900460ff16905088565b60045481565b60016020528060005260406000206000915090508060000154908060010154908060020154908060030154905084565b600080600083815260200190815260200160002090503373ffffffffffffffffffffffffffffffffffffffff168160000160009054906101000a900473ffffffffffffffffffffffffffffffffffffffff1673ffffffffffffffffffffffffffffffffffffffff161461111e576040517f08c379a000000000000000000000000000000000000000000000000000000000815260040161111590612080565b60405180910390fd5b8060050160009054906101000a900460ff1661116f576040517f08c379a000000000000000000000000000000000000000000000000000000000815260040161116690612112565b60405180910390fd5b8060050160019054906101000a900460ff16156111c1576040517f08c379a00000000000000000000000000000000000000000000000000000000081526004016111b89061217e565b60405180910390fd5b60018160050160016101000a81548160ff021916908315150217905550817f5a098ab2367201784eb2ad9b7e2f0d916557002385b83ddcc19293f40c4e0ed060405160405180910390a25050565b6000819050919050565b6112228161120f565b82525050565b600060208201905061123d6000830184611219565b92915050565b6000604051905090565b600080fd5b600080fd5b6112608161120f565b811461126b57600080fd5b50565b60008135905061127d81611257565b92915050565b60008060006060848603121561129c5761129b61124d565b5b60006112aa8682870161126e565b93505060206112bb8682870161126e565b92505060406112cc8682870161126e565b9150509250925092565b600073ffffffffffffffffffffffffffffffffffffffff82169050919050565b6000611301826112d6565b9050919050565b611311816112f6565b811461131c57600080fd5b50565b60008135905061132e81611308565b92915050565b600080fd5b600080fd5b6000601f19601f8301169050919050565b7f4e487b7100000000000000000000000000000000000000000000000000000000600052604160045260246000fd5b6113878261133e565b810181811067ffffffffffffffff821117156113a6576113a561134f565b5b80604052505050565b60006113b9611243565b90506113c5828261137e565b919050565b600067ffffffffffffffff8211156113e5576113e461134f565b5b6113ee8261133e565b9050602081019050919050565b82818337600083830152505050565b600061141d611418846113ca565b6113af565b90508281526020810184848401111561143957611438611339565b5b6114448482856113fb565b509392505050565b600082601f83011261146157611460611334565b5b813561147184826020860161140a565b91505092915050565b6000806000606084860312156114935761149261124d565b5b60006114a18682870161131f565b935050602084013567ffffffffffffffff8111156114c2576114c1611252565b5b6114ce8682870161144c565b92505060406114df8682870161126e565b9150509250925092565b60008060408385031215611500576114ff61124d565b5b600061150e8582860161131f565b925050602061151f8582860161126e565b9150509250929050565b60006020828403121561153f5761153e61124d565b5b600061154d8482850161126e565b91505092915050565b61155f816112f6565b82525050565b600081519050919050565b600082825260208201905092915050565b60005b8381101561159f578082015181840152602081019050611584565b60008484015250505050565b60006115b682611565565b6115c08185611570565b93506115d0818560208601611581565b6115d98161133e565b840191505092915050565b60008115159050919050565b6115f9816115e4565b82525050565b600061010082019050611615600083018b611556565b611622602083018a611556565b818103604083015261163481896115ab565b90506116436060830188611219565b6116506080830187611219565b61165d60a08301866115f0565b61166a60c08301856115f0565b61167760e08301846115f0565b9998505050505050505050565b60006020828403121561169a5761169961124d565b5b60006116a88482850161131f565b91505092915050565b600081519050919050565b600082825260208201905092915050565b6000819050602082019050919050565b6116e68161120f565b82525050565b60006116f883836116dd565b60208301905092915050565b6000602082019050919050565b600061171c826116b1565b61172681856116bc565b9350611731836116cd565b8060005b8381101561176257815161174988826116ec565b975061175483611704565b925050600181019050611735565b5085935050505092915050565b600060208201905081810360008301526117898184611711565b905092915050565b60006080820190506117a66000830187611219565b6117b36020830186611219565b6117c06040830185611219565b6117cd6060830184611219565b95945050505050565b7f4f6e6c7920736572766963652072656365697665722063616e2066696e616c6960008201527f7a65000000000000000000000000000000000000000000000000000000000000602082015250565b6000611832602283611570565b915061183d826117d6565b604082019050919050565b6000602082019050818103600083015261186181611825565b9050919050565b7f41677265656d656e74206d75737420626520636f6d706c65746564206669727360008201527f7400000000000000000000000000000000000000000000000000000000000000602082015250565b60006118c4602183611570565b91506118cf82611868565b604082019050919050565b600060208201905081810360008301526118f3816118b7565b9050919050565b7f41677265656d656e7420616c72656164792066696e616c697a65640000000000600082015250565b6000611930601b83611570565b915061193b826118fa565b602082019050919050565b6000602082019050818103600083015261195f81611923565b9050919050565b7f526174696e67206d757374206265206265747765656e203120616e6420350000600082015250565b600061199c601e83611570565b91506119a782611966565b602082019050919050565b600060208201905081810360008301526119cb8161198f565b9050919050565b7f4e487b7100000000000000000000000000000000000000000000000000000000600052601160045260246000fd5b6000611a0c8261120f565b91507fffffffffffffffffffffffffffffffffffffffffffffffffffffffffffffffff8203611a3e57611a3d6119d2565b5b600182019050919050565b6000604082019050611a5e6000830185611219565b611a6b6020830184611219565b9392505050565b7f496e76616c696420726563656976657220616464726573730000000000000000600082015250565b6000611aa8601883611570565b9150611ab382611a72565b602082019050919050565b60006020820190508181036000830152611ad781611a9b565b9050919050565b7f5365727669636520686f757273206d757374206265206772656174657220746860008201527f616e203000000000000000000000000000000000000000000000000000000000602082015250565b6000611b3a602483611570565b9150611b4582611ade565b604082019050919050565b60006020820190508181036000830152611b6981611b2d565b9050919050565b7f53657276696365206465736372697074696f6e2063616e6e6f7420626520656d60008201527f7074790000000000000000000000000000000000000000000000000000000000602082015250565b6000611bcc602383611570565b9150611bd782611b70565b604082019050919050565b60006020820190508181036000830152611bfb81611bbf565b9050919050565b7f4e487b7100000000000000000000000000000000000000000000000000000000600052602260045260246000fd5b60006002820490506001821680611c4957607f821691505b602082108103611c5c57611c5b611c02565b5b50919050565b60008190508160005260206000209050919050565b60006020601f8301049050919050565b600082821b905092915050565b600060088302611cc47fffffffffffffffffffffffffffffffffffffffffffffffffffffffffffffffff82611c87565b611cce8683611c87565b95508019841693508086168417925050509392505050565b6000819050919050565b6000611d0b611d06611d018461120f565b611ce6565b61120f565b9050919050565b6000819050919050565b611d2583611cf0565b611d39611d3182611d12565b848454611c94565b825550505050565b600090565b611d4e611d41565b611d59818484611d1c565b505050565b5b81811015611d7d57611d72600082611d46565b600181019050611d5f565b5050565b601f821115611dc257611d9381611c62565b611d9c84611c77565b81016020851015611dab578190505b611dbf611db785611c77565b830182611d5e565b50505b505050565b600082821c905092915050565b6000611de560001984600802611dc7565b1980831691505092915050565b6000611dfe8383611dd4565b9150826002028217905092915050565b611e1782611565565b67ffffffffffffffff811115611e3057611e2f61134f565b5b611e3a8254611c31565b611e45828285611d81565b600060209050601f831160018114611e785760008415611e66578287015190505b611e708582611df2565b865550611ed8565b601f198416611e8686611c62565b60005b82811015611eae57848901518255600182019150602085019450602081019050611e89565b86831015611ecb5784890151611ec7601f891682611dd4565b8355505b6001600288020188555050505b505050505050565b60006040820190508181036000830152611efa81856115ab565b9050611f096020830184611219565b9392505050565b7f4f6e6c7920736572766963652072656365697665722063616e20636f6e66697260008201527f6d00000000000000000000000000000000000000000000000000000000000000602082015250565b6000611f6c602183611570565b9150611f7782611f10565b604082019050919050565b60006020820190508181036000830152611f9b81611f5f565b9050919050565b7f41677265656d656e7420616c726561647920636f6e6669726d65640000000000600082015250565b6000611fd8601b83611570565b9150611fe382611fa2565b602082019050919050565b6000602082019050818103600083015261200781611fcb565b9050919050565b7f4f6e6c7920736572766963652070726f76696465722063616e206d61726b206160008201527f7320636f6d706c65746564000000000000000000000000000000000000000000602082015250565b600061206a602b83611570565b91506120758261200e565b604082019050919050565b600060208201905081810360008301526120998161205d565b9050919050565b7f41677265656d656e74206d75737420626520636f6e6669726d6564206669727360008201527f7400000000000000000000000000000000000000000000000000000000000000602082015250565b60006120fc602183611570565b9150612107826120a0565b604082019050919050565b6000602082019050818103600083015261212b816120ef565b9050919050565b7f41677265656d656e7420616c726561647920636f6d706c657465640000000000600082015250565b6000612168601b83611570565b915061217382612132565b602082019050919050565b600060208201905081810360008301526121978161215b565b905091905056fea26469706673582212205a8b1fd378b23fe819e84b48f5d30caeeedad16885418beafde19e7077e4b6b464736f6c63430008130033",
  "linkReferences": {},
  "deployedLinkReferences": {}
}